{
  "contractName": "Kittycontract",
  "abi": [
    {
      "anonymous": false,
      "inputs": [
        {
          "indexed": true,
          "internalType": "address",
          "name": "owner",
          "type": "address"
        },
        {
          "indexed": true,
          "internalType": "address",
          "name": "approved",
          "type": "address"
        },
        {
          "indexed": true,
          "internalType": "uint256",
          "name": "tokenId",
          "type": "uint256"
        }
      ],
      "name": "Approval",
      "type": "event"
    },
    {
      "anonymous": false,
      "inputs": [
        {
          "indexed": true,
          "internalType": "address",
          "name": "owner",
          "type": "address"
        },
        {
          "indexed": true,
          "internalType": "address",
          "name": "operator",
          "type": "address"
        },
        {
          "indexed": false,
          "internalType": "bool",
          "name": "approved",
          "type": "bool"
        }
      ],
      "name": "ApprovalForAll",
      "type": "event"
    },
    {
      "anonymous": false,
      "inputs": [
        {
          "indexed": false,
          "internalType": "address",
          "name": "owner",
          "type": "address"
        },
        {
          "indexed": false,
          "internalType": "uint256",
          "name": "kittenId",
          "type": "uint256"
        },
        {
          "indexed": false,
          "internalType": "uint256",
          "name": "mumId",
          "type": "uint256"
        },
        {
          "indexed": false,
          "internalType": "uint256",
          "name": "dadId",
          "type": "uint256"
        },
        {
          "indexed": false,
          "internalType": "uint256",
          "name": "genes",
          "type": "uint256"
        }
      ],
      "name": "Birth",
      "type": "event"
    },
    {
      "anonymous": false,
      "inputs": [
        {
          "indexed": true,
          "internalType": "address",
          "name": "from",
          "type": "address"
        },
        {
          "indexed": true,
          "internalType": "address",
          "name": "to",
          "type": "address"
        },
        {
          "indexed": true,
          "internalType": "uint256",
          "name": "tokenId",
          "type": "uint256"
        }
      ],
      "name": "Transfer",
      "type": "event"
    },
    {
      "constant": true,
      "inputs": [],
      "name": "CREATION_LIMIT_GEN0",
      "outputs": [
        {
          "internalType": "uint256",
          "name": "",
          "type": "uint256"
        }
      ],
      "payable": false,
      "stateMutability": "view",
      "type": "function"
    },
    {
      "constant": true,
      "inputs": [],
      "name": "gen0Counter",
      "outputs": [
        {
          "internalType": "uint256",
          "name": "",
          "type": "uint256"
        }
      ],
      "payable": false,
      "stateMutability": "view",
      "type": "function"
    },
    {
      "constant": true,
      "inputs": [
        {
          "internalType": "uint256",
          "name": "",
          "type": "uint256"
        }
      ],
      "name": "kittyIndexToApproved",
      "outputs": [
        {
          "internalType": "address",
          "name": "",
          "type": "address"
        }
      ],
      "payable": false,
      "stateMutability": "view",
      "type": "function"
    },
    {
      "constant": true,
      "inputs": [
        {
          "internalType": "uint256",
          "name": "",
          "type": "uint256"
        }
      ],
      "name": "kittyIndexToOwner",
      "outputs": [
        {
          "internalType": "address",
          "name": "",
          "type": "address"
        }
      ],
      "payable": false,
      "stateMutability": "view",
      "type": "function"
    },
    {
      "constant": true,
      "inputs": [],
      "name": "name",
      "outputs": [
        {
          "internalType": "string",
          "name": "",
          "type": "string"
        }
      ],
      "payable": false,
      "stateMutability": "view",
      "type": "function"
    },
    {
      "constant": true,
      "inputs": [],
      "name": "owner",
      "outputs": [
        {
          "internalType": "address",
          "name": "",
          "type": "address"
        }
      ],
      "payable": false,
      "stateMutability": "view",
      "type": "function"
    },
    {
      "constant": true,
      "inputs": [],
      "name": "symbol",
      "outputs": [
        {
          "internalType": "string",
          "name": "",
          "type": "string"
        }
      ],
      "payable": false,
      "stateMutability": "view",
      "type": "function"
    },
    {
      "constant": false,
      "inputs": [
        {
          "internalType": "address",
          "name": "newOwner",
          "type": "address"
        }
      ],
      "name": "transferOwnership",
      "outputs": [],
      "payable": false,
      "stateMutability": "nonpayable",
      "type": "function"
    },
    {
      "constant": false,
      "inputs": [
        {
          "internalType": "address",
          "name": "_from",
          "type": "address"
        },
        {
          "internalType": "address",
          "name": "_to",
          "type": "address"
        },
        {
          "internalType": "uint256",
          "name": "_tokenId",
          "type": "uint256"
        },
        {
          "internalType": "bytes",
          "name": "_data",
          "type": "bytes"
        }
      ],
      "name": "safeTransferFrom",
      "outputs": [],
      "payable": false,
      "stateMutability": "nonpayable",
      "type": "function"
    },
    {
      "constant": false,
      "inputs": [
        {
          "internalType": "address",
          "name": "_from",
          "type": "address"
        },
        {
          "internalType": "address",
          "name": "_to",
          "type": "address"
        },
        {
          "internalType": "uint256",
          "name": "_tokenId",
          "type": "uint256"
        }
      ],
      "name": "safeTransferFrom",
      "outputs": [],
      "payable": false,
      "stateMutability": "nonpayable",
      "type": "function"
    },
    {
      "constant": false,
      "inputs": [
        {
          "internalType": "address",
          "name": "_from",
          "type": "address"
        },
        {
          "internalType": "address",
          "name": "_to",
          "type": "address"
        },
        {
          "internalType": "uint256",
          "name": "_tokenId",
          "type": "uint256"
        }
      ],
      "name": "transferFrom",
      "outputs": [],
      "payable": false,
      "stateMutability": "nonpayable",
      "type": "function"
    },
    {
      "constant": false,
      "inputs": [
        {
          "internalType": "address",
          "name": "_to",
          "type": "address"
        },
        {
          "internalType": "uint256",
          "name": "_tokenId",
          "type": "uint256"
        }
      ],
      "name": "approve",
      "outputs": [],
      "payable": false,
      "stateMutability": "nonpayable",
      "type": "function"
    },
    {
      "constant": false,
      "inputs": [
        {
          "internalType": "address",
          "name": "operator",
          "type": "address"
        },
        {
          "internalType": "bool",
          "name": "approved",
          "type": "bool"
        }
      ],
      "name": "setApprovalForAll",
      "outputs": [],
      "payable": false,
      "stateMutability": "nonpayable",
      "type": "function"
    },
    {
      "constant": true,
      "inputs": [
        {
          "internalType": "uint256",
          "name": "tokenId",
          "type": "uint256"
        }
      ],
      "name": "getApproved",
      "outputs": [
        {
          "internalType": "address",
          "name": "",
          "type": "address"
        }
      ],
      "payable": false,
      "stateMutability": "view",
      "type": "function"
    },
    {
      "constant": true,
      "inputs": [
        {
          "internalType": "address",
          "name": "owner",
          "type": "address"
        },
        {
          "internalType": "address",
          "name": "operator",
          "type": "address"
        }
      ],
      "name": "isApprovedForAll",
      "outputs": [
        {
          "internalType": "bool",
          "name": "",
          "type": "bool"
        }
      ],
      "payable": false,
      "stateMutability": "view",
      "type": "function"
    },
    {
      "constant": true,
      "inputs": [
        {
          "internalType": "address",
          "name": "_owner",
          "type": "address"
        }
      ],
      "name": "getKittyByOwner",
      "outputs": [
        {
          "internalType": "uint256[]",
          "name": "",
          "type": "uint256[]"
        }
      ],
      "payable": false,
      "stateMutability": "view",
      "type": "function"
    },
    {
      "constant": true,
      "inputs": [
        {
          "internalType": "uint256",
          "name": "_id",
          "type": "uint256"
        }
      ],
      "name": "getKitty",
      "outputs": [
        {
          "internalType": "uint256",
          "name": "genes",
          "type": "uint256"
        },
        {
          "internalType": "uint256",
          "name": "birthTime",
          "type": "uint256"
        },
        {
          "internalType": "uint256",
          "name": "mumId",
          "type": "uint256"
        },
        {
          "internalType": "uint256",
          "name": "dadId",
          "type": "uint256"
        },
        {
          "internalType": "uint256",
          "name": "generation",
          "type": "uint256"
        }
      ],
      "payable": false,
      "stateMutability": "view",
      "type": "function"
    },
    {
      "constant": false,
      "inputs": [
        {
          "internalType": "uint256",
          "name": "_genes",
          "type": "uint256"
        }
      ],
      "name": "createKittyGen0",
      "outputs": [
        {
          "internalType": "uint256",
          "name": "",
          "type": "uint256"
        }
      ],
      "payable": false,
      "stateMutability": "nonpayable",
      "type": "function"
    },
    {
      "constant": true,
      "inputs": [
        {
          "internalType": "address",
          "name": "owner",
          "type": "address"
        }
      ],
      "name": "balanceOf",
      "outputs": [
        {
          "internalType": "uint256",
          "name": "balance",
          "type": "uint256"
        }
      ],
      "payable": false,
      "stateMutability": "view",
      "type": "function"
    },
    {
      "constant": true,
      "inputs": [],
      "name": "totalSupply",
      "outputs": [
        {
          "internalType": "uint256",
          "name": "",
          "type": "uint256"
        }
      ],
      "payable": false,
      "stateMutability": "view",
      "type": "function"
    },
    {
      "constant": true,
      "inputs": [
        {
          "internalType": "uint256",
          "name": "_tokenId",
          "type": "uint256"
        }
      ],
      "name": "ownerOf",
      "outputs": [
        {
          "internalType": "address",
          "name": "",
          "type": "address"
        }
      ],
      "payable": false,
      "stateMutability": "view",
      "type": "function"
    },
    {
      "constant": false,
      "inputs": [
        {
          "internalType": "address",
          "name": "_to",
          "type": "address"
        },
        {
          "internalType": "uint256",
          "name": "_tokenId",
          "type": "uint256"
        }
      ],
      "name": "transfer",
      "outputs": [],
      "payable": false,
      "stateMutability": "nonpayable",
      "type": "function"
    }
  ],
  "bytecode": "0x6080604052336000806101000a81548173ffffffffffffffffffffffffffffffffffffffff021916908373ffffffffffffffffffffffffffffffffffffffff160217905550611a79806100536000396000f3fe608060405234801561001057600080fd5b50600436106101425760003560e01c806395e6c62f116100b8578063b88d4fde1161007c578063b88d4fde14610744578063d5a776ca14610849578063e985e9c51461088b578063e98b7f4d14610907578063ef5e94aa14610965578063f2fde38b1461098357610142565b806395e6c62f14610581578063a22cb4651461061a578063a45f4bfc1461066a578063a9059cbb146106d8578063b48343301461072657610142565b806342842e0e1161010a57806342842e0e14610312578063481af3d3146103805780636352211e146103ee57806370a082311461045c5780638da5cb5b146104b457806395d89b41146104fe57610142565b806306fdde0314610147578063081812fc146101ca578063095ea7b31461023857806318160ddd1461028657806323b872dd146102a4575b600080fd5b61014f6109c7565b6040518080602001828103825283818151815260200191508051906020019080838360005b8381101561018f578082015181840152602081019050610174565b50505050905090810190601f1680156101bc5780820380516001836020036101000a031916815260200191505b509250505060405180910390f35b6101f6600480360360208110156101e057600080fd5b8101908080359060200190929190505050610a00565b604051808273ffffffffffffffffffffffffffffffffffffffff1673ffffffffffffffffffffffffffffffffffffffff16815260200191505060405180910390f35b6102846004803603604081101561024e57600080fd5b81019080803573ffffffffffffffffffffffffffffffffffffffff16906020019092919080359060200190929190505050610a4e565b005b61028e610aca565b6040518082815260200191505060405180910390f35b610310600480360360608110156102ba57600080fd5b81019080803573ffffffffffffffffffffffffffffffffffffffff169060200190929190803573ffffffffffffffffffffffffffffffffffffffff16906020019092919080359060200190929190505050610ad7565b005b61037e6004803603606081101561032857600080fd5b81019080803573ffffffffffffffffffffffffffffffffffffffff169060200190929190803573ffffffffffffffffffffffffffffffffffffffff16906020019092919080359060200190929190505050610afc565b005b6103ac6004803603602081101561039657600080fd5b8101908080359060200190929190505050610b1c565b604051808273ffffffffffffffffffffffffffffffffffffffff1673ffffffffffffffffffffffffffffffffffffffff16815260200191505060405180910390f35b61041a6004803603602081101561040457600080fd5b8101908080359060200190929190505050610b4f565b604051808273ffffffffffffffffffffffffffffffffffffffff1673ffffffffffffffffffffffffffffffffffffffff16815260200191505060405180910390f35b61049e6004803603602081101561047257600080fd5b81019080803573ffffffffffffffffffffffffffffffffffffffff169060200190929190505050610b8c565b6040518082815260200191505060405180910390f35b6104bc610bd5565b604051808273ffffffffffffffffffffffffffffffffffffffff1673ffffffffffffffffffffffffffffffffffffffff16815260200191505060405180910390f35b610506610bfa565b6040518080602001828103825283818151815260200191508051906020019080838360005b8381101561054657808201518184015260208101905061052b565b50505050905090810190601f1680156105735780820380516001836020036101000a031916815260200191505b509250505060405180910390f35b6105c36004803603602081101561059757600080fd5b81019080803573ffffffffffffffffffffffffffffffffffffffff169060200190929190505050610c33565b6040518080602001828103825283818151815260200191508051906020019060200280838360005b838110156106065780820151818401526020810190506105eb565b505050509050019250505060405180910390f35b6106686004803603604081101561063057600080fd5b81019080803573ffffffffffffffffffffffffffffffffffffffff169060200190929190803515159060200190929190505050610d60565b005b6106966004803603602081101561068057600080fd5b8101908080359060200190929190505050610e9a565b604051808273ffffffffffffffffffffffffffffffffffffffff1673ffffffffffffffffffffffffffffffffffffffff16815260200191505060405180910390f35b610724600480360360408110156106ee57600080fd5b81019080803573ffffffffffffffffffffffffffffffffffffffff16906020019092919080359060200190929190505050610ecd565b005b61072e610f62565b6040518082815260200191505060405180910390f35b6108476004803603608081101561075a57600080fd5b81019080803573ffffffffffffffffffffffffffffffffffffffff169060200190929190803573ffffffffffffffffffffffffffffffffffffffff16906020019092919080359060200190929190803590602001906401000000008111156107c157600080fd5b8201836020820111156107d357600080fd5b803590602001918460018302840111640100000000831117156107f557600080fd5b91908080601f016020809104026020016040519081016040528093929190818152602001838380828437600081840152601f19601f820116905080830192505050505050509192919290505050610f67565b005b6108756004803603602081101561085f57600080fd5b8101908080359060200190929190505050610f8e565b6040518082815260200191505060405180910390f35b6108ed600480360360408110156108a157600080fd5b81019080803573ffffffffffffffffffffffffffffffffffffffff169060200190929190803573ffffffffffffffffffffffffffffffffffffffff169060200190929190505050611020565b604051808215151515815260200191505060405180910390f35b6109336004803603602081101561091d57600080fd5b81019080803590602001909291905050506110b4565b604051808681526020018581526020018481526020018381526020018281526020019550505050505060405180910390f35b61096d611163565b6040518082815260200191505060405180910390f35b6109c56004803603602081101561099957600080fd5b81019080803573ffffffffffffffffffffffffffffffffffffffff169060200190929190505050611169565b005b6040518060400160405280600c81526020017f46696c69704b697474696573000000000000000000000000000000000000000081525081565b60006001805490508210610a1357600080fd5b6004600083815260200190815260200160002060009054906101000a900473ffffffffffffffffffffffffffffffffffffffff169050919050565b610a58338261123a565b610a6157600080fd5b610a6b81836112a6565b808273ffffffffffffffffffffffffffffffffffffffff163373ffffffffffffffffffffffffffffffffffffffff167f8c5be1e5ebec7d5bd14f71427d1e84f3dd0314c0f7b2291e5b200ac8c7c3b92560405160405180910390a45050565b6000600180549050905090565b610ae3338484846112fc565b610aec57600080fd5b610af78383836113b7565b505050565b610b1783838360405180602001604052806000815250610f67565b505050565b60046020528060005260406000206000915054906101000a900473ffffffffffffffffffffffffffffffffffffffff1681565b60006002600083815260200190815260200160002060009054906101000a900473ffffffffffffffffffffffffffffffffffffffff169050919050565b6000600360008373ffffffffffffffffffffffffffffffffffffffff1673ffffffffffffffffffffffffffffffffffffffff168152602001908152602001600020549050919050565b6000809054906101000a900473ffffffffffffffffffffffffffffffffffffffff1681565b6040518060400160405280600281526020017f464b00000000000000000000000000000000000000000000000000000000000081525081565b606080600360008473ffffffffffffffffffffffffffffffffffffffff1673ffffffffffffffffffffffffffffffffffffffff16815260200190815260200160002054604051908082528060200260200182016040528015610ca45781602001602082028038833980820191505090505b509050600080905060008090505b600180549050811015610d55578473ffffffffffffffffffffffffffffffffffffffff166002600083815260200190815260200160002060009054906101000a900473ffffffffffffffffffffffffffffffffffffffff1673ffffffffffffffffffffffffffffffffffffffff161415610d485780838381518110610d3357fe5b60200260200101818152505081806001019250505b8080600101915050610cb2565b508192505050919050565b3373ffffffffffffffffffffffffffffffffffffffff168273ffffffffffffffffffffffffffffffffffffffff161415610d9957600080fd5b80600560003373ffffffffffffffffffffffffffffffffffffffff1673ffffffffffffffffffffffffffffffffffffffff16815260200190815260200160002060008473ffffffffffffffffffffffffffffffffffffffff1673ffffffffffffffffffffffffffffffffffffffff16815260200190815260200160002060006101000a81548160ff0219169083151502179055508173ffffffffffffffffffffffffffffffffffffffff163373ffffffffffffffffffffffffffffffffffffffff167f17307eab39ab6107e8899845ad3d59bd9653f200f220920489ca2b5937696c3183604051808215151515815260200191505060405180910390a35050565b60026020528060005260406000206000915054906101000a900473ffffffffffffffffffffffffffffffffffffffff1681565b600073ffffffffffffffffffffffffffffffffffffffff168273ffffffffffffffffffffffffffffffffffffffff161415610f0757600080fd5b3073ffffffffffffffffffffffffffffffffffffffff168273ffffffffffffffffffffffffffffffffffffffff161415610f4057600080fd5b610f4a338261123a565b610f5357600080fd5b610f5e3383836113b7565b5050565b600a81565b610f73338585856112fc565b610f7c57600080fd5b610f8884848484611573565b50505050565b60008060009054906101000a900473ffffffffffffffffffffffffffffffffffffffff1673ffffffffffffffffffffffffffffffffffffffff163373ffffffffffffffffffffffffffffffffffffffff1614610fe957600080fd5b600a60065410610ff857600080fd5b60066000815480929190600101919050555061101960008060008533611599565b9050919050565b6000600560008473ffffffffffffffffffffffffffffffffffffffff1673ffffffffffffffffffffffffffffffffffffffff16815260200190815260200160002060008373ffffffffffffffffffffffffffffffffffffffff1673ffffffffffffffffffffffffffffffffffffffff16815260200190815260200160002060009054906101000a900460ff16905092915050565b600080600080600080600187815481106110ca57fe5b906000526020600020906002020190508060010160009054906101000a900467ffffffffffffffff1667ffffffffffffffff1694508060010160089054906101000a900463ffffffff1663ffffffff16935080600101600c9054906101000a900463ffffffff1663ffffffff1692508060010160109054906101000a900461ffff1661ffff169150806000015495505091939590929450565b60065481565b6000809054906101000a900473ffffffffffffffffffffffffffffffffffffffff1673ffffffffffffffffffffffffffffffffffffffff163373ffffffffffffffffffffffffffffffffffffffff16146111c257600080fd5b600073ffffffffffffffffffffffffffffffffffffffff168173ffffffffffffffffffffffffffffffffffffffff161461123757806000806101000a81548173ffffffffffffffffffffffffffffffffffffffff021916908373ffffffffffffffffffffffffffffffffffffffff1602179055505b50565b60008273ffffffffffffffffffffffffffffffffffffffff166002600084815260200190815260200160002060009054906101000a900473ffffffffffffffffffffffffffffffffffffffff1673ffffffffffffffffffffffffffffffffffffffff1614905092915050565b806004600084815260200190815260200160002060006101000a81548173ffffffffffffffffffffffffffffffffffffffff021916908373ffffffffffffffffffffffffffffffffffffffff1602179055505050565b6000600180549050821061130f57600080fd5b600073ffffffffffffffffffffffffffffffffffffffff168373ffffffffffffffffffffffffffffffffffffffff16141561134957600080fd5b611353848361123a565b61135c57600080fd5b8373ffffffffffffffffffffffffffffffffffffffff163373ffffffffffffffffffffffffffffffffffffffff16148061139c575061139b8583611763565b5b806113ad57506113ac8486611020565b5b9050949350505050565b600360008373ffffffffffffffffffffffffffffffffffffffff1673ffffffffffffffffffffffffffffffffffffffff16815260200190815260200160002060008154809291906001019190505550816002600083815260200190815260200160002060006101000a81548173ffffffffffffffffffffffffffffffffffffffff021916908373ffffffffffffffffffffffffffffffffffffffff160217905550600073ffffffffffffffffffffffffffffffffffffffff168373ffffffffffffffffffffffffffffffffffffffff161461151357600360008473ffffffffffffffffffffffffffffffffffffffff1673ffffffffffffffffffffffffffffffffffffffff16815260200190815260200160002060008154809291906001900391905055506004600082815260200190815260200160002060006101000a81549073ffffffffffffffffffffffffffffffffffffffff02191690555b808273ffffffffffffffffffffffffffffffffffffffff168473ffffffffffffffffffffffffffffffffffffffff167fddf252ad1be2c89b69c2b068fc378daa952ba7f163c4a11628f55a4df523b3ef60405160405180910390a4505050565b61157e8484846113b7565b61158a848484846117cf565b61159357600080fd5b50505050565b60006115a36119cc565b6040518060a001604052808581526020014267ffffffffffffffff1681526020018863ffffffff1681526020018763ffffffff1681526020018661ffff168152509050600060018083908060018154018082558091505090600182039060005260206000209060020201600090919290919091506000820151816000015560208201518160010160006101000a81548167ffffffffffffffff021916908367ffffffffffffffff16021790555060408201518160010160086101000a81548163ffffffff021916908363ffffffff160217905550606082015181600101600c6101000a81548163ffffffff021916908363ffffffff16021790555060808201518160010160106101000a81548161ffff021916908361ffff16021790555050500390507f0a5311bd2a6608f08a180df2ee7c5946819a649b204b554bb8e39825b2c50ad584828a8a89604051808673ffffffffffffffffffffffffffffffffffffffff1673ffffffffffffffffffffffffffffffffffffffff1681526020018581526020018481526020018381526020018281526020019550505050505060405180910390a1611755600085836113b7565b809250505095945050505050565b60008273ffffffffffffffffffffffffffffffffffffffff166004600084815260200190815260200160002060009054906101000a900473ffffffffffffffffffffffffffffffffffffffff1673ffffffffffffffffffffffffffffffffffffffff1614905092915050565b60006117da846119b3565b6117e757600190506119ab565b60008473ffffffffffffffffffffffffffffffffffffffff1663150b7a02338887876040518563ffffffff1660e01b8152600401808573ffffffffffffffffffffffffffffffffffffffff1673ffffffffffffffffffffffffffffffffffffffff1681526020018473ffffffffffffffffffffffffffffffffffffffff1673ffffffffffffffffffffffffffffffffffffffff16815260200183815260200180602001828103825283818151815260200191508051906020019080838360005b838110156118c25780820151818401526020810190506118a7565b50505050905090810190601f1680156118ef5780820380516001836020036101000a031916815260200191505b5095505050505050602060405180830381600087803b15801561191157600080fd5b505af1158015611925573d6000803e3d6000fd5b505050506040513d602081101561193b57600080fd5b810190808051906020019092919050505090506040518080611a16602f9139602f01905060405180910390207bffffffffffffffffffffffffffffffffffffffffffffffffffffffff1916817bffffffffffffffffffffffffffffffffffffffffffffffffffffffff1916149150505b949350505050565b600080823b905060008163ffffffff1611915050919050565b6040518060a0016040528060008152602001600067ffffffffffffffff168152602001600063ffffffff168152602001600063ffffffff168152602001600061ffff168152509056fe6f6e455243373231526563656976656428616464726573732c616464726573732c75696e743235362c627974657329a265627a7a72315820a9601a2e38195db62b2a1fc36722a984acf8d36363f42c1834edfccfeb70c12e64736f6c63430005100032",
  "source": "pragma solidity ^0.5.12;\n\nimport \"./IERC721.sol\";\nimport \"./IERC721Receiver.sol\";\nimport \"./Ownable.sol\";\n\ncontract Kittycontract is IERC721, Ownable {\n\n    uint256 public constant CREATION_LIMIT_GEN0 = 10;\n    string public constant name = \"FilipKitties\";\n    string public constant symbol = \"FK\";\n\n    bytes4 internal constant MAGIC_ERC721_RECEIVED = bytes4(keccak256(\"onERC721Received(address,address,uint256,bytes)\"));\n\n\n    event Birth(\n        address owner, \n        uint256 kittenId, \n        uint256 mumId, \n        uint256 dadId, \n        uint256 genes\n    );\n\n    struct Kitty {\n        uint256 genes;\n        uint64 birthTime;\n        uint32 mumId;\n        uint32 dadId;\n        uint16 generation;\n    }\n\n    Kitty[] kitties;\n\n    mapping (uint256 => address) public kittyIndexToOwner;\n    mapping (address => uint256) ownershipTokenCount;\n\n    mapping (uint256 => address) public kittyIndexToApproved;\n    mapping (address => mapping (address => bool)) private _operatorApprovals;\n\n    uint256 public gen0Counter;\n\n    function safeTransferFrom(address _from, address _to, uint256 _tokenId) public {\n        safeTransferFrom(_from, _to, _tokenId, \"\");\n    }\n\n    function safeTransferFrom(address _from, address _to, uint256 _tokenId, bytes memory _data) public {\n        require( _isApprovedOrOwner(msg.sender, _from, _to, _tokenId) );\n        _safeTransfer(_from, _to, _tokenId, _data);\n    }\n\n    function _safeTransfer(address _from, address _to, uint256 _tokenId, bytes memory _data) internal{\n        _transfer(_from, _to, _tokenId);\n        require( _checkERC721Support(_from, _to, _tokenId, _data) );\n    }\n\n    function transferFrom(address _from, address _to,uint256 _tokenId) public {\n        require( _isApprovedOrOwner(msg.sender, _from, _to, _tokenId) );\n\n        _transfer(_from, _to, _tokenId);\n    }\n\n    function approve(address _to, uint256 _tokenId) public {\n        require(_owns(msg.sender, _tokenId));\n\n        _approve(_tokenId, _to);\n        emit Approval(msg.sender, _to, _tokenId);\n    }\n\n    function setApprovalForAll(address operator, bool approved) public {\n        require(operator != msg.sender);\n\n        _operatorApprovals[msg.sender][operator] = approved;\n        emit ApprovalForAll(msg.sender, operator, approved);\n    }\n    \n    function getApproved(uint256 tokenId) public view returns (address) {\n        require(tokenId < kitties.length); //Token must exist\n\n        return kittyIndexToApproved[tokenId];\n    }\n    function isApprovedForAll(address owner, address operator) public view returns (bool) {\n        return _operatorApprovals[owner][operator];\n    }\n\n    function getKittyByOwner(address _owner) external view returns(uint[] memory) {\n        uint[] memory result = new uint[](ownershipTokenCount[_owner]);\n        uint counter = 0;\n        for (uint i = 0; i < kitties.length; i++) {\n            if (kittyIndexToOwner[i] == _owner) {\n                result[counter] = i;\n                counter++;\n            }\n        }\n        return result;\n    }\n\n\n    function getKitty(uint256 _id) external view returns (\n        uint256 genes,\n        uint256 birthTime,\n        uint256 mumId,\n        uint256 dadId,\n        uint256 generation\n    ) \n    {\n        Kitty storage kitty = kitties[_id];\n\n        birthTime = uint256(kitty.birthTime);\n        mumId = uint256(kitty.mumId);\n        dadId = uint256(kitty.dadId);\n        generation = uint256(kitty.generation);\n        genes = kitty.genes;\n    }\n\n    function createKittyGen0(uint256 _genes) public onlyOwner returns (uint256) {\n        require(gen0Counter < CREATION_LIMIT_GEN0);\n\n        gen0Counter++;\n\n        // Gen0 have no owners they are own by the contract\n        return _createKitty(0, 0, 0, _genes, msg.sender);\n    }\n\n    function _createKitty(\n        uint256 _mumId,\n        uint256 _dadId,\n        uint256 _generation,\n        uint256 _genes,\n        address _owner\n    ) private returns (uint256) {\n        Kitty memory _kitty = Kitty({\n            genes: _genes,\n            birthTime: uint64(now),\n            mumId: uint32(_mumId),\n            dadId: uint32(_dadId),\n            generation: uint16(_generation)\n        });\n\n        uint256 newKittenId = kitties.push(_kitty) - 1;\n\n        emit Birth(_owner, newKittenId, _mumId, _dadId, _genes);\n\n        _transfer(address(0), _owner, newKittenId);\n\n        return newKittenId;\n\n    }\n\n    function balanceOf(address owner) external view returns (uint256 balance){\n        return ownershipTokenCount[owner];\n    }\n\n    function totalSupply() public view returns (uint) {\n        return kitties.length;\n    }\n\n    function ownerOf(uint256 _tokenId) external view returns (address)\n    {\n        return kittyIndexToOwner[_tokenId];\n    }\n\n    function transfer(address _to,uint256 _tokenId) external\n    {\n        require(_to != address(0));\n        require(_to != address(this));\n        require(_owns(msg.sender, _tokenId));\n\n        _transfer(msg.sender, _to, _tokenId);\n    }\n\n    function _transfer(address _from, address _to, uint256 _tokenId) internal {\n        ownershipTokenCount[_to]++;\n\n        kittyIndexToOwner[_tokenId] = _to;\n\n        if (_from != address(0)) {\n            ownershipTokenCount[_from]--;\n            delete kittyIndexToApproved[_tokenId];\n        }\n\n        // Emit the transfer event.\n        emit Transfer(_from, _to, _tokenId);\n    }\n\n    function _owns(address _claimant, uint256 _tokenId) internal view returns (bool) {\n        return kittyIndexToOwner[_tokenId] == _claimant;\n    }\n    function _approve(uint256 _tokenId, address _approved) internal {\n        kittyIndexToApproved[_tokenId] = _approved;\n    }\n    function _approvedFor(address _claimant, uint256 _tokenId) internal view returns (bool) {\n        return kittyIndexToApproved[_tokenId] == _claimant;\n    }\n    function _checkERC721Support(address _from, address _to, uint256 _tokenId, bytes memory _data) internal returns (bool){\n        if( !_isContract(_to) ){\n            return true;\n        }\n        //Call onERC721Received in the _to contract\n        bytes4 returnData = IERC721Receiver(_to).onERC721Received(msg.sender, _from, _tokenId, _data);\n        //Check return value\n        return returnData == MAGIC_ERC721_RECEIVED;\n    }\n    function _isContract(address _to) internal view returns (bool){\n        uint32 size;\n        assembly{\n            size := extcodesize(_to)\n        }\n        return size > 0;\n    }\n    function _isApprovedOrOwner(address _spender, address _from, address _to, uint256 _tokenId) internal view returns (bool) {\n        require(_tokenId < kitties.length); //Token must exist\n        require(_to != address(0));\n        require(_owns(_from, _tokenId));\n        \n        return (msg.sender == _from || _approvedFor(_spender, _tokenId) || isApprovedForAll(_from, _spender));\n    }\n}",
  "sourcePath": "/Users/admin/Documents/Github/academy-kitties-template/contracts/Kittycontract.sol",
  "compiler": {
    "name": "solc",
    "version": "0.5.16+commit.9c3226ce.Emscripten.clang"
  },
  "schemaVersion": "3.2.0",
  "updatedAt": "2020-06-26T07:39:25.720Z",
  "devdoc": {
    "methods": {
      "transferOwnership(address)": {
        "details": "Allows the current owner to transfer control of the contract to a newOwner.",
        "params": {
          "newOwner": "The address to transfer ownership to."
        }
      }
    }
  },
  "userdoc": {
    "methods": {}
  }
}