{
  "contractName": "KittyMarketPlace",
  "abi": [
    {
      "inputs": [
        {
          "internalType": "address",
          "name": "_kittyContractAddress",
          "type": "address"
        }
      ],
      "payable": false,
      "stateMutability": "nonpayable",
      "type": "constructor"
    },
    {
      "anonymous": false,
      "inputs": [
        {
          "indexed": false,
          "internalType": "string",
          "name": "TxType",
          "type": "string"
        },
        {
          "indexed": false,
          "internalType": "address",
          "name": "owner",
          "type": "address"
        },
        {
          "indexed": false,
          "internalType": "uint256",
          "name": "tokenId",
          "type": "uint256"
        }
      ],
      "name": "MarketTransaction",
      "type": "event"
    },
    {
      "constant": true,
      "inputs": [],
      "name": "owner",
      "outputs": [
        {
          "internalType": "address",
          "name": "",
          "type": "address"
        }
      ],
      "payable": false,
      "stateMutability": "view",
      "type": "function"
    },
    {
      "constant": false,
      "inputs": [
        {
          "internalType": "address",
          "name": "newOwner",
          "type": "address"
        }
      ],
      "name": "transferOwnership",
      "outputs": [],
      "payable": false,
      "stateMutability": "nonpayable",
      "type": "function"
    },
    {
      "constant": false,
      "inputs": [
        {
          "internalType": "address",
          "name": "_kittyContractAddress",
          "type": "address"
        }
      ],
      "name": "setKittyContract",
      "outputs": [],
      "payable": false,
      "stateMutability": "nonpayable",
      "type": "function"
    },
    {
      "constant": true,
      "inputs": [
        {
          "internalType": "uint256",
          "name": "_tokenId",
          "type": "uint256"
        }
      ],
      "name": "getOffer",
      "outputs": [
        {
          "internalType": "address",
          "name": "seller",
          "type": "address"
        },
        {
          "internalType": "uint256",
          "name": "price",
          "type": "uint256"
        },
        {
          "internalType": "uint256",
          "name": "index",
          "type": "uint256"
        },
        {
          "internalType": "uint256",
          "name": "tokenId",
          "type": "uint256"
        },
        {
          "internalType": "bool",
          "name": "activate",
          "type": "bool"
        }
      ],
      "payable": false,
      "stateMutability": "view",
      "type": "function"
    },
    {
      "constant": false,
      "inputs": [],
      "name": "getAllTokenOnSale",
      "outputs": [
        {
          "internalType": "uint256[]",
          "name": "listOfOffers",
          "type": "uint256[]"
        }
      ],
      "payable": false,
      "stateMutability": "nonpayable",
      "type": "function"
    },
    {
      "constant": false,
      "inputs": [
        {
          "internalType": "uint256",
          "name": "_price",
          "type": "uint256"
        },
        {
          "internalType": "uint256",
          "name": "_tokenId",
          "type": "uint256"
        }
      ],
      "name": "setOffer",
      "outputs": [],
      "payable": false,
      "stateMutability": "nonpayable",
      "type": "function"
    },
    {
      "constant": false,
      "inputs": [
        {
          "internalType": "uint256",
          "name": "_tokenId",
          "type": "uint256"
        }
      ],
      "name": "removeOffer",
      "outputs": [],
      "payable": false,
      "stateMutability": "nonpayable",
      "type": "function"
    },
    {
      "constant": false,
      "inputs": [
        {
          "internalType": "uint256",
          "name": "_tokenId",
          "type": "uint256"
        }
      ],
      "name": "buyKitty",
      "outputs": [],
      "payable": true,
      "stateMutability": "payable",
      "type": "function"
    }
  ],
  "bytecode": "0x608060405234801561001057600080fd5b506040516114a33803806114a38339818101604052602081101561003357600080fd5b8101908080519060200190929190505050336000806101000a81548173ffffffffffffffffffffffffffffffffffffffff021916908373ffffffffffffffffffffffffffffffffffffffff1602179055506100938161009960201b60201c565b50610136565b6000809054906101000a900473ffffffffffffffffffffffffffffffffffffffff1673ffffffffffffffffffffffffffffffffffffffff163373ffffffffffffffffffffffffffffffffffffffff16146100f257600080fd5b80600160006101000a81548173ffffffffffffffffffffffffffffffffffffffff021916908373ffffffffffffffffffffffffffffffffffffffff16021790555050565b61135e806101456000396000f3fe60806040526004361061007b5760003560e01c8063941b055b1161004e578063941b055b1461022f57806395a0f9c714610274578063ae5310f6146102af578063f2fde38b146102dd5761007b565b80634579268a1461008057806349b3709f1461011b57806362b7f94e146101875780638da5cb5b146101d8575b600080fd5b34801561008c57600080fd5b506100b9600480360360208110156100a357600080fd5b810190808035906020019092919050505061032e565b604051808673ffffffffffffffffffffffffffffffffffffffff1673ffffffffffffffffffffffffffffffffffffffff168152602001858152602001848152602001838152602001821515151581526020019550505050505060405180910390f35b34801561012757600080fd5b506101306103a9565b6040518080602001828103825283818151815260200191508051906020019060200280838360005b83811015610173578082015181840152602081019050610158565b505050509050019250505060405180910390f35b34801561019357600080fd5b506101d6600480360360208110156101aa57600080fd5b81019080803573ffffffffffffffffffffffffffffffffffffffff1690602001909291905050506104c0565b005b3480156101e457600080fd5b506101ed61055d565b604051808273ffffffffffffffffffffffffffffffffffffffff1673ffffffffffffffffffffffffffffffffffffffff16815260200191505060405180910390f35b34801561023b57600080fd5b506102726004803603604081101561025257600080fd5b810190808035906020019092919080359060200190929190505050610582565b005b34801561028057600080fd5b506102ad6004803603602081101561029757600080fd5b81019080803590602001909291905050506109fd565b005b6102db600480360360208110156102c557600080fd5b8101908080359060200190929190505050610c9a565b005b3480156102e957600080fd5b5061032c6004803603602081101561030057600080fd5b81019080803573ffffffffffffffffffffffffffffffffffffffff16906020019092919050505061107e565b005b6000806000806000806003600088815260200190815260200160002090508060000160009054906101000a900473ffffffffffffffffffffffffffffffffffffffff168160010154826002015483600301548460040160009054906101000a900460ff16849450955095509550955095505091939590929450565b60606000600280549050905060008114156103f75760006040519080825280602002602001820160405280156103ee5781602001602082028038833980820191505090505b509150506104bd565b6060816040519080825280602002602001820160405280156104285781602001602082028038833980820191505090505b50905060008090505b828110156104b657600115156002828154811061044a57fe5b906000526020600020906005020160040160009054906101000a900460ff16151514156104a9576002818154811061047e57fe5b90600052602060002090600502016003015482828151811061049c57fe5b6020026020010181815250505b8080600101915050610431565b8193505050505b90565b6000809054906101000a900473ffffffffffffffffffffffffffffffffffffffff1673ffffffffffffffffffffffffffffffffffffffff163373ffffffffffffffffffffffffffffffffffffffff161461051957600080fd5b80600160006101000a81548173ffffffffffffffffffffffffffffffffffffffff021916908373ffffffffffffffffffffffffffffffffffffffff16021790555050565b6000809054906101000a900473ffffffffffffffffffffffffffffffffffffffff1681565b61058c338261114f565b6105e1576040517f08c379a00000000000000000000000000000000000000000000000000000000081526004018080602001828103825260238152602001806113076023913960400191505060405180910390fd5b6000600360008381526020019081526020016000206001015414610650576040517f08c379a00000000000000000000000000000000000000000000000000000000081526004018080602001828103825260258152602001806112e26025913960400191505060405180910390fd5b600160009054906101000a900473ffffffffffffffffffffffffffffffffffffffff1673ffffffffffffffffffffffffffffffffffffffff1663e985e9c533306040518363ffffffff1660e01b8152600401808373ffffffffffffffffffffffffffffffffffffffff1673ffffffffffffffffffffffffffffffffffffffff1681526020018273ffffffffffffffffffffffffffffffffffffffff1673ffffffffffffffffffffffffffffffffffffffff1681526020019250505060206040518083038186803b15801561072357600080fd5b505afa158015610737573d6000803e3d6000fd5b505050506040513d602081101561074d57600080fd5b81019080805190602001909291905050506107b3576040517f08c379a00000000000000000000000000000000000000000000000000000000081526004018080602001828103825260418152602001806112a16041913960600191505060405180910390fd5b6107bb611235565b6040518060a001604052803373ffffffffffffffffffffffffffffffffffffffff1681526020018481526020016002805490508152602001838152602001600115158152509050806003600084815260200190815260200160002060008201518160000160006101000a81548173ffffffffffffffffffffffffffffffffffffffff021916908373ffffffffffffffffffffffffffffffffffffffff16021790555060208201518160010155604082015181600201556060820151816003015560808201518160040160006101000a81548160ff0219169083151502179055509050506002819080600181540180825580915050906001820390600052602060002090600502016000909192909190915060008201518160000160006101000a81548173ffffffffffffffffffffffffffffffffffffffff021916908373ffffffffffffffffffffffffffffffffffffffff16021790555060208201518160010155604082015181600201556060820151816003015560808201518160040160006101000a81548160ff0219169083151502179055505050507fd99e4fad9ad6313b1feb588fa8e605e3a9873172f2024330c35dd2b4041a4386338360405180806020018473ffffffffffffffffffffffffffffffffffffffff1673ffffffffffffffffffffffffffffffffffffffff1681526020018381526020018281038252600c8152602001807f437265617465206f666665720000000000000000000000000000000000000000815250602001935050505060405180910390a1505050565b610a05611235565b600360008381526020019081526020016000206040518060a00160405290816000820160009054906101000a900473ffffffffffffffffffffffffffffffffffffffff1673ffffffffffffffffffffffffffffffffffffffff1673ffffffffffffffffffffffffffffffffffffffff1681526020016001820154815260200160028201548152602001600382015481526020016004820160009054906101000a900460ff16151515158152505090503373ffffffffffffffffffffffffffffffffffffffff16816000015173ffffffffffffffffffffffffffffffffffffffff1614610b3c576040517f08c379a000000000000000000000000000000000000000000000000000000000815260040180806020018281038252602481526020018061127d6024913960400191505060405180910390fd5b60036000838152602001908152602001600020600080820160006101000a81549073ffffffffffffffffffffffffffffffffffffffff02191690556001820160009055600282016000905560038201600090556004820160006101000a81549060ff0219169055505060006002600360008581526020019081526020016000206002015481548110610bca57fe5b906000526020600020906005020160040160006101000a81548160ff0219169083151502179055507fd99e4fad9ad6313b1feb588fa8e605e3a9873172f2024330c35dd2b4041a4386338360405180806020018473ffffffffffffffffffffffffffffffffffffffff1673ffffffffffffffffffffffffffffffffffffffff1681526020018381526020018281038252600c8152602001807f52656d6f7665206f666665720000000000000000000000000000000000000000815250602001935050505060405180910390a15050565b610ca2611235565b600360008381526020019081526020016000206040518060a00160405290816000820160009054906101000a900473ffffffffffffffffffffffffffffffffffffffff1673ffffffffffffffffffffffffffffffffffffffff1673ffffffffffffffffffffffffffffffffffffffff1681526020016001820154815260200160028201548152602001600382015481526020016004820160009054906101000a900460ff161515151581525050905080602001513414610dca576040517f08c379a00000000000000000000000000000000000000000000000000000000081526004018080602001828103825260168152602001807f54686520707269636520697320696e636f72726563740000000000000000000081525060200191505060405180910390fd5b60036000838152602001908152602001600020600080820160006101000a81549073ffffffffffffffffffffffffffffffffffffffff02191690556001820160009055600282016000905560038201600090556004820160006101000a81549060ff0219169055505060006002600360008581526020019081526020016000206002015481548110610e5857fe5b906000526020600020906005020160040160006101000a81548160ff021916908315150217905550600081602001511115610edd57806000015173ffffffffffffffffffffffffffffffffffffffff166108fc82602001519081150290604051600060405180830381858888f19350505050158015610edb573d6000803e3d6000fd5b505b600160009054906101000a900473ffffffffffffffffffffffffffffffffffffffff1673ffffffffffffffffffffffffffffffffffffffff166323b872dd826000015133856040518463ffffffff1660e01b8152600401808473ffffffffffffffffffffffffffffffffffffffff1673ffffffffffffffffffffffffffffffffffffffff1681526020018373ffffffffffffffffffffffffffffffffffffffff1673ffffffffffffffffffffffffffffffffffffffff1681526020018281526020019350505050600060405180830381600087803b158015610fbe57600080fd5b505af1158015610fd2573d6000803e3d6000fd5b505050507fd99e4fad9ad6313b1feb588fa8e605e3a9873172f2024330c35dd2b4041a4386338360405180806020018473ffffffffffffffffffffffffffffffffffffffff1673ffffffffffffffffffffffffffffffffffffffff168152602001838152602001828103825260038152602001807f4275790000000000000000000000000000000000000000000000000000000000815250602001935050505060405180910390a15050565b6000809054906101000a900473ffffffffffffffffffffffffffffffffffffffff1673ffffffffffffffffffffffffffffffffffffffff163373ffffffffffffffffffffffffffffffffffffffff16146110d757600080fd5b600073ffffffffffffffffffffffffffffffffffffffff168173ffffffffffffffffffffffffffffffffffffffff161461114c57806000806101000a81548173ffffffffffffffffffffffffffffffffffffffff021916908373ffffffffffffffffffffffffffffffffffffffff1602179055505b50565b60008273ffffffffffffffffffffffffffffffffffffffff16600160009054906101000a900473ffffffffffffffffffffffffffffffffffffffff1673ffffffffffffffffffffffffffffffffffffffff16636352211e846040518263ffffffff1660e01b81526004018082815260200191505060206040518083038186803b1580156111db57600080fd5b505afa1580156111ef573d6000803e3d6000fd5b505050506040513d602081101561120557600080fd5b810190808051906020019092919050505073ffffffffffffffffffffffffffffffffffffffff1614905092915050565b6040518060a00160405280600073ffffffffffffffffffffffffffffffffffffffff168152602001600081526020016000815260200160008152602001600015158152509056fe596f7520617265206e6f74207468652073656c6c6572206f662074686174206b69747479436f6e7472616374206e6565647320746f20626520617070726f76656420746f207472616e7366657220746865206b6974747920696e2074686520667574757265596f752063616e27742073656c6c207477696365207468652073616d65206f666665727320596f7520617265206e6f7420746865206f776e6572206f662074686174206b69747479a265627a7a723158207fb266f907a7870917e998965e7cf35095a25680a59bc75256e407d0bf5ebbbe64736f6c63430005100032",
  "source": "pragma solidity ^0.5.0;\r\n\r\nimport \"./Kittycontract.sol\";\r\nimport \"./Ownable.sol\";\r\n\r\n/*\r\n * Market place to trade kitties (should **in theory** be used for any ERC721 token)\r\n * It needs an existing Kitty contract to interact with\r\n * Note: it does not inherit from the kitty contracts\r\n * Note: It takes ownership of the kitty for the duration that it is on the marketplace\r\n */\r\ncontract KittyMarketPlace is Ownable {\r\n    Kittycontract private _kittyContract;\r\n\r\n    struct Offer {\r\n        address payable seller;\r\n        uint256 price;\r\n        uint256 index;\r\n        uint256 tokenId;\r\n        bool active;\r\n    }\r\n\r\n    Offer[] offers;\r\n\r\n    event MarketTransaction(string TxType, address owner, uint256 tokenId);\r\n\r\n\r\n    mapping(uint256 => Offer) tokenIdToOffer;\r\n\r\n    function setKittyContract(address _kittyContractAddress) public onlyOwner {\r\n      _kittyContract = Kittycontract(_kittyContractAddress);\r\n    }\r\n\r\n    constructor(address _kittyContractAddress) public {\r\n      setKittyContract(_kittyContractAddress);\r\n    }\r\n\r\n    \r\n    function getOffer(uint256 _tokenId)\r\n        public\r\n        view\r\n        returns\r\n    (\r\n        address seller,\r\n        uint256 price,\r\n        uint256 index,\r\n        uint256 tokenId,\r\n        bool activate\r\n\r\n    ) {\r\n        Offer storage offer = tokenIdToOffer[_tokenId];\r\n        return (\r\n            offer.seller,\r\n            offer.price,\r\n            offer.index,\r\n            offer.tokenId,\r\n            offer.active\r\n        );\r\n    }\r\n\r\n    function getAllTokenOnSale() public  returns(uint256[] memory listOfOffers){\r\n      uint256 totalOffers = offers.length;\r\n      \r\n      if (totalOffers == 0) {\r\n          return new uint256[](0);\r\n      } else {\r\n    \r\n        uint256[] memory result = new uint256[](totalOffers);\r\n    \r\n        uint256 offerId;\r\n    \r\n        for (offerId = 0; offerId < totalOffers; offerId++) {\r\n          if(offers[offerId].active == true){\r\n            result[offerId] = offers[offerId].tokenId;\r\n          }\r\n        }\r\n        return result;\r\n      }\r\n    }\r\n\r\n    function _ownsKitty(address _address, uint256 _tokenId)\r\n        internal\r\n        view\r\n        returns (bool)\r\n    {\r\n        return (_kittyContract.ownerOf(_tokenId) == _address);\r\n    }\r\n\r\n    /*\r\n     * Create a new offer based for the given tokenId and price\r\n     */\r\n    function setOffer(uint256 _price, uint256 _tokenId) public {\r\n        require(\r\n            _ownsKitty(msg.sender, _tokenId),\r\n            \"You are not the owner of that kitty\"\r\n        );\r\n        require(tokenIdToOffer[_tokenId].price == 0, \"You can't sell twice the same offers \");\r\n        require(_kittyContract.isApprovedForAll(msg.sender, address(this)), \"Contract needs to be approved to transfer the kitty in the future\");\r\n\r\n        Offer memory _offer = Offer({\r\n          seller: msg.sender,\r\n          price: _price,\r\n          active: true,\r\n          tokenId: _tokenId,\r\n          index: offers.length\r\n        });\r\n\r\n\r\n        tokenIdToOffer[_tokenId] = _offer;\r\n        offers.push(_offer);\r\n\r\n        emit MarketTransaction(\"Create offer\", msg.sender, _tokenId);\r\n    }\r\n\r\n    /*\r\n     * Remove an existing offer\r\n     */\r\n    function removeOffer(uint256 _tokenId) public {\r\n        Offer memory offer = tokenIdToOffer[_tokenId];\r\n        require(\r\n            offer.seller == msg.sender,\r\n            \"You are not the seller of that kitty\"\r\n        );\r\n\r\n        delete tokenIdToOffer[_tokenId];\r\n        offers[tokenIdToOffer[_tokenId].index].active = false;\r\n\r\n        emit MarketTransaction(\"Remove offer\", msg.sender, _tokenId);\r\n\r\n    }\r\n\r\n    /*\r\n     * Accept an offer and buy the kitty\r\n     */\r\n    function buyKitty(uint256 _tokenId) public payable {\r\n        Offer memory offer = tokenIdToOffer[_tokenId];\r\n        require(msg.value == offer.price, \"The price is incorrect\");\r\n\r\n        // Important: delete the kitty from the mapping BEFORE paying out to prevent reentry attacks\r\n        delete tokenIdToOffer[_tokenId];\r\n        offers[tokenIdToOffer[_tokenId].index].active = false;\r\n\r\n        // Transfer the funds to the seller\r\n        // TODO: make this logic pull instead of push\r\n        if (offer.price > 0) {\r\n            offer.seller.transfer(offer.price);\r\n        }\r\n\r\n        // Transfer ownership of the kitty\r\n        _kittyContract.transferFrom(offer.seller, msg.sender, _tokenId);\r\n\r\n        emit MarketTransaction(\"Buy\", msg.sender, _tokenId);\r\n    }\r\n}",
  "sourcePath": "C:\\Users\\hello\\github\\academy-kitties-template\\contracts\\KittyMarketplace.sol",
  "compiler": {
    "name": "solc",
    "version": "0.5.16+commit.9c3226ce.Emscripten.clang"
  },
  "schemaVersion": "3.2.0",
  "updatedAt": "2020-06-30T12:35:56.582Z",
  "devdoc": {
    "methods": {
      "transferOwnership(address)": {
        "details": "Allows the current owner to transfer control of the contract to a newOwner.",
        "params": {
          "newOwner": "The address to transfer ownership to."
        }
      }
    }
  },
  "userdoc": {
    "methods": {}
  }
}